:100000000C9434000C9451000C9451000C94510049
:100010000C9451000C9451000C9451000C9451001C
:100020000C9451000C9451000C9451000C94FF025C
:100030000C9451000C9451000C9451000C945100FC
:100040000C9451000C9451000C9451000C945100EC
:100050000C9451000C9451000C9451000C945100DC
:100060000C9451000C94510011241FBECFEFD8E026
:10007000DEBFCDBF11E0A0E0B1E0ECE4F0E102C0F2
:1000800005900D92A638B107D9F721E0A6E8B1E0B6
:1000900001C01D92AE3BB207E1F70E9430020C9402
:1000A00024080C94000084B1806284B98AB180680D
:1000B0008AB988B1877F88B988B18F7E88B988B1BD
:1000C0008F7D88B90E94B4038CE00E94840380E88D
:1000D0000E94840380E091E00E94260480EC0E944C
:1000E000840380E191E00E94260482E084BD81E3E4
:1000F00087BD84E085BD0E94DD02789408954F920B
:100100005F926F927F928F929F92AF92BF92CF92A7
:10011000DF92EF92FF920F931F93CF93DF93CDB7B0
:10012000DEB764970FB6F894DEBF0FBECDBF8091E7
:10013000B201811123C08091A6019091A701A091E5
:10014000A801B091A9010196A11DB11D8093A6013E
:100150009093A701A093A801B093A9010F97A105BF
:10016000B10508F4EEC080EC0E9484038FE191E0B9
:100170000E94260481E08093B201E3C0813009F43B
:10018000E0C0823049F580EC0E9484038EE291E069
:100190000E942604E3EBF1E02581948183811F9284
:1001A0002F931F929F931F928F938FE391E09F93C2
:1001B0008F938E010F5F1F4F1F930F930E943A057D
:1001C00080EC0E948403C8010E9426040FB6F894B4
:1001D000DEBF0FBECDBFB5C0833009F0B2C0809086
:1001E000A6019090A701A090A801B090A901C50117
:1001F000B40120EA3CE840E050E00E94D304122F12
:10020000032FA22FB32F20E633E74FEF5FEF0E94BB
:1002100013056B017C01C501B4016C0D7D1D8E1DA4
:100220009F1D28E532E040E050E00E94D304722E8A
:10023000632EA8EABDEF0E94F504DC01CB018C0D12
:100240009D1DAE1DBF1DBC01CD01680D791D8A1D10
:100250009B1D0F2EFAE0CF2ED12CE12CF12CF02D8E
:10026000A70196010E94D304522E432EC501B4016A
:10027000A70196010E94D304F62EE72E83E80E9480
:10028000840383E391E00E942604EF92FF924F9251
:100290005F926F927F920F931F938DE491E09F93F3
:1002A0008F938E010F5F1F4F1F930F930E943A058C
:1002B00083E80E948403C8010E942604809187017C
:1002C0000FB6F894DEBF0FBECDBF811108C080917C
:1002D000AD018823B1F181E08093870132C0813084
:1002E000D9F48091A6019091A701A091A801B091A5
:1002F000A9010296A11DB11D8093A6019093A701AB
:10030000A093A801B093A9018091AE018823C9F000
:1003100082E08093870115C08091AD01882319F098
:1003200081E0809387018091AF01882351F0109282
:10033000A6011092A7011092A8011092A901109293
:10034000870164960FB6F894DEBF0FBECDBFDF9174
:10035000CF911F910F91FF90EF90DF90CF90BF90C2
:10036000AF909F908F907F906F905F904F90089587
:1003700080918601811103C083E0809386018BB157
:1003800080688BB9F89427B181E090E000908601F5
:1003900002C0880F991F0A94E2F78095822387B9DB
:1003A000EAE7F0E083E0808380918601805A8093C1
:1003B0007C0080818068808385B1806185B984B14B
:1003C000806184B91092B20081E08093B100809185
:1003D000B2008035E0F31092B10085B18F7E85B90F
:1003E00084B18F7E84B9EAE7F0E080818064808305
:1003F00080917A0086FDFCCF20918601E22FF0E00B
:1004000080917900ED54FE4F808337B181E090E018
:1004100002C0880F991F2A95E2F7832B87B9809134
:100420008601282F30E0F901ED54FE4F9081963976
:1004300030F4F901E655FE4F91E0908304C0F901D4
:10044000E655FE4F10828F5F80938601863019F447
:1004500083E08093860178948BB18F778BB9089570
:100460000E9453008091B2018230E8F48BB1806821
:100470008BB91092B20081E08093B1008091B200FC
:100480008E38E0F3E1EBF0E010828BB18F778BB91F
:100490001092B20081E080838091B2008233E0F359
:1004A0001092B10007C0A99B05C085B3826085BBCF
:1004B0000E94B8010E947E03882321F184E00E94FB
:1004C000450480918D018F5F80938D01843021F4EC
:1004D00010928D010E947F0080918C018F5F80932C
:1004E0008C01843179F410928C0185B1806285B9D8
:1004F0000E94EE02609388017093890180938A01C3
:1005000090938B010E94EE02009188011091890165
:1005100020918A0130918B01DC01CB01801B910B72
:10052000A20BB30B84369105A105B10518F085B176
:100530008F7D85B981E40E949F04882369F081E062
:100540000E94840380E80E94840380E691E00E9478
:10055000260482E08093B20182E40E949F048823F3
:1005600009F480CF81E00E94840380EC0E94840320
:1005700081E791E00E9426041092A6011092A70143
:100580001092A8011092A90183E08093B2016ACF72
:10059000419842988111429A85B1807F85B985B191
:1005A000682B65B9409A85E08A95F1F7000040987C
:1005B00085E08A95F1F700000895109280008AE0A6
:1005C0008093810087E08093890080ED809388008C
:1005D000EFE6F0E08081826080830895EFE6F0E04E
:1005E00080818D7F80836091A2017091A3018091B1
:1005F000A4019091A50120812260208308951F927B
:100600000F920FB60F9211242F933F935F936F9326
:100610007F938F939F93AF93BF938091A20190910B
:10062000A301A091A401B091A5010196A11DB11D46
:100630008093A2019093A301A093A401B093A5017C
:100640002091900130919101C90165E070E00E9414
:10065000BF04892B19F481E08093A101C90162E3F1
:1006600070E00E94BF04892B19F481E08093A001FF
:10067000C90164EF71E00E94BF04892B19F481E085
:1006800080939F012F5F3F4F309391012093900102
:10069000283E334049F48091BB018F5F8093BB01BA
:1006A00010929101109290018091BB018C3338F02F
:1006B0001092BB018091BD018F5F8093BD0180913D
:1006C000BD018C3338F01092BD018091BC018F5F69
:1006D0008093BC018091BC01883110F01092BC0164
:1006E000BF91AF919F918F917F916F915F913F915A
:1006F0002F910F900FBE0F901F9018958091A00121
:1007000081111092A0010895CF93C82F85B18093D5
:100710008F0184B18F6084B987B1876087B985E024
:100720008A95F1F700006C2F62956F7080E00E944F
:10073000C8026C2F6F7080E00E94C80287EC90E0C6
:100740000197F1F700C00000C150C23030F48FE3D0
:100750009FE10197F1F700C0000080918F0185B9FA
:1007600039983A98CF91089584B18F6084B987B150
:10077000876087B98AE08A95F1F700C040988FE5D5
:100780009AEE0197F1F700C0000063E080E00E945C
:10079000C8028FE19EE40197F1F700C0000063E01A
:1007A00080E00E94C8028FE193E00197F1F700C05A
:1007B000000063E080E00E94C8028FE193E00197AF
:1007C000F1F700C0000062E080E00E94C8028FE103
:1007D00093E00197F1F700C0000088E20E948403D3
:1007E00088E00E94840381E00E94840386E00E94E6
:1007F00084038EE00E94840339983A980895CF9339
:10080000C82F85B180938E0184B18F6084B987B180
:10081000876087B985E08A95F1F700006C2F6295B3
:100820006F7081E00E94C8026C2F6F7081E00E949F
:10083000C80287EC90E00197F1F700C000008091BA
:100840008E0185B939983A98CF9108950F931F93E7
:10085000CF93DF93FC01EC012196808181110AC0C6
:100860000FC08991882361F00E94FF030C171D07B8
:10087000C1F706C08F010E94FF030C5E1F4FF1CF2E
:10088000DF91CF911F910F910895CF92DF92EF9258
:10089000FF920F931F93CF93DF93853008F084E08E
:1008A00080939E01579A882309F440C0C6E9D1E09D
:1008B000EAE9F1E0A2E9B1E0815090E0039642E07C
:1008C00050E061E070E0CC24C394D12C1AB19B01BC
:1008D000042E02C0220F331F0A94E2F7322F309504
:1008E00031233AB93BB1232B2BB90AE00A95F1F732
:1008F00000C029B130E0042E02C0359527950A9436
:10090000E2F71C2D790101E0E022FF2420FD1D2DDE
:100910001993EF2821F42081211101C0CC92119369
:100920004F5F5F4F11964817590781F6DF91CF91BE
:100930001F910F91FF90EF90DF90CF90089540911D
:100940009E014423D1F0813481F407C0B901919113
:100950002F5F3F4F98130DC002C060E070E0FB01B5
:10096000EE56FE4F808110820895E3E8F1E021E029
:1009700030E0241758F380E0089580E0089597FB55
:10098000072E16F4009407D077FD09D00E941B05AE
:1009900007FC05D03EF4909581959F4F0895709582
:1009A00061957F4F0895A1E21A2EAA1BBB1BFD0182
:1009B0000DC0AA1FBB1FEE1FFF1FA217B307E4073E
:1009C000F50720F0A21BB30BE40BF50B661F771F96
:1009D000881F991F1A9469F7609570958095909576
:1009E0009B01AC01BD01CF0108950E94FD0433239A
:1009F00012F48A1B9B0B0C940E05A29FB001B39FAF
:100A0000C001A39F700D811D1124911DB29F700D17
:100A1000811D1124911D08950E94FD04B7FF0895C2
:100A2000821B930B0895B7FF0C942F050E942F058E
:100A3000821B930B0895AA1BBB1B51E107C0AA1F81
:100A4000BB1FA617B70710F0A61BB70B881F991F6F
:100A50005A95A9F780959095BC01CD0108950E9403
:100A6000FD04A59F900DB49F900DA49F800D911D36
:100A700011240895AEE0B0E0E0E4F5E00C94FB074B
:100A80000D891E8986E08C831A8309838FEF9FE787
:100A90009E838D83AE01475E5F4F6F89788DCE0157
:100AA00001960E945C05EF81F885E00FF11F10822E
:100AB0002E96E4E00C941708ABE0B0E0E2E6F5E037
:100AC0000C94ED076C017B018A01FC0117821682F0
:100AD000838181FFCCC1CE0101963C01F601938157
:100AE000F70193FD859193FF81917F01882309F49C
:100AF000BAC1853239F493FD859193FF81917F01CD
:100B0000853229F4B60190E00E945307E7CF912C7B
:100B1000212C312CFFE1F315D8F08B3279F038F429
:100B2000803279F08332A1F4232D20611DC08D32F3
:100B300061F0803369F4232D216016C0832D82601B
:100B4000382EE32DE4603E2E2AC0F32DF8601DC040
:100B500037FC2DC020ED280F2A3040F08E32B9F43A
:100B600036FC81C1232D2064322E19C036FE06C00A
:100B70008AE0989E200D1124922E11C0EAE02E9E4C
:100B8000200D1124222EF32DF0623F2E08C08C364A
:100B900021F4832D8068382E02C0883641F4F70195
:100BA00093FD859193FF81917F018111B3CF982FA0
:100BB0009F7D9554933028F40C5F1F4F9FE39983DA
:100BC0000DC0833631F0833771F0833509F059C099
:100BD00021C0F801808189830E5F1F4F8824839490
:100BE000912C530113C02801F2E04F0E511CF80163
:100BF000A080B18036FE03C0692D70E002C06FEFA7
:100C00007FEFC5010E9448074C018201F32DFF7759
:100C10003F2E16C0280122E0420E511CF801A08090
:100C2000B18036FE03C0692D70E002C06FEF7FEF28
:100C3000C5010E943D074C01F32DF0683F2E820153
:100C400033FC1BC0822D90E088169906B0F4B601E3
:100C500080E290E00E9453072A94F4CFF50137FC1C
:100C6000859137FE81915F01B60190E00E945307A4
:100C700021102A9421E0821A91088114910471F7BD
:100C8000E8C0843611F0893641F5F80137FE07C017
:100C900060817181828193810C5F1F4F08C06081E8
:100CA0007181072E000C880B990B0E5F1F4FF32DDF
:100CB000FF763F2E97FF09C09095809570956195BE
:100CC0007F4F8F4F9F4FF0683F2E2AE030E0A30107
:100CD0000E948F07882E861845C0853731F4232D52
:100CE0002F7EB22E2AE030E025C0932D997FB92EB9
:100CF0008F36C1F018F4883579F0B5C0803719F017
:100D0000883721F0B0C0E92FE061BE2EB4FE0DC0DF
:100D1000FB2DF460BF2E09C034FE0AC0292F2660C7
:100D2000B22E06C028E030E005C020E130E002C06D
:100D300020E132E0F801B7FE07C060817181828155
:100D400093810C5F1F4F06C06081718180E090E04D
:100D50000E5F1F4FA3010E948F07882E8618FB2D60
:100D6000FF773F2E36FE0DC0232D2E7FA22E891435
:100D700058F434FE0BC032FC09C0832D8E7EA82EA1
:100D800005C0B82CA32C03C0B82C01C0B92CA4FEFC
:100D90000FC0FE01E80DF11D8081803321F49A2DF2
:100DA000997EA92E09C0A2FE06C0B394B39404C0D4
:100DB0008A2D867809F0B394A3FC11C0A0FE06C06A
:100DC000B21488F4280C922C9B180EC0B21460F454
:100DD000B60180E290E00E945307B394F7CFB214BB
:100DE00018F42B1802C0982C212CA4FE10C0B601B8
:100DF00080E390E00E945307A2FE17C0A1FC03C04D
:100E000088E790E002C088E590E0B6010CC08A2D2A
:100E1000867859F0A1FE02C08BE201C080E2A7FCF7
:100E20008DE2B60190E00E945307891438F4B601B0
:100E300080E390E00E9453079A94F7CF8A94F301DD
:100E4000E80DF11D8081B60190E00E9453078110EA
:100E5000F5CF222009F442CEB60180E290E00E9454
:100E600053072A94F6CFF6018681978102C08FEF4F
:100E70009FEF2B96E2E10C940908FC01059061506C
:100E800070400110D8F7809590958E0F9F1F0895A0
:100E9000FC016150704001900110D8F78095909549
:100EA0008E0F9F1F08950F931F93CF93DF93FB0126
:100EB000238121FD03C08FEF9FEF2CC022FF16C0BE
:100EC00046815781248135814217530744F4A0811C
:100ED000B1819D012F5F3F4F318320838C93268109
:100EE00037812F5F3F4F3783268314C08B01EC017E
:100EF000FB010084F185E02D0995892BE1F6D801ED
:100F000016968D919C911797019617969C938E93A8
:100F10001697CE01DF91CF911F910F910895FA019D
:100F2000AA27283051F1203181F1E8946F936E7F28
:100F30006E5F7F4F8F4F9F4FAF4FB1E03ED0B4E019
:100F40003CD0670F781F891F9A1FA11D680F791F5A
:100F50008A1F911DA11D6A0F711D811D911DA11D6B
:100F600020D009F468943F912AE0269F112430197B
:100F7000305D3193DEF6CF010895462F4770405D16
:100F80004193B3E00FD0C9F7F6CF462F4F70405DC5
:100F90004A3318F0495D31FD4052419302D0A9F720
:100FA000EACFB4E0A6959795879577956795BA951A
:100FB000C9F700976105710508959B01AC010A2EE0
:100FC00006945795479537952795BA95C9F7620FB7
:100FD000731F841F951FA01D08952F923F924F925B
:100FE0005F926F927F928F929F92AF92BF92CF92B9
:100FF000DF92EF92FF920F931F93CF93DF93CDB7C2
:10100000DEB7CA1BDB0B0FB6F894DEBF0FBECDBF39
:1010100009942A88398848885F846E847D848C840A
:101020009B84AA84B984C884DF80EE80FD800C8113
:101030001B81AA81B981CE0FD11D0FB6F894DEBFF6
:0C1040000FBECDBFED010895F894FFCF66
:10104C0041565220746F7563682073656E7365002A
:10105C005465737420262064656D6F2E2E2E00202F
:10106C002050726573732041206F72204200202043
:10107C00202020202020202020202020202000257F
:10108C00346420202534642020253464002530323B
:10109C00643A253032643A253032642E25316400AE
:1010AC0050616431202050616432202050616433DF
:1010BC000052554E202053544F502020524553453A
:0610CC00540041424344C0
:00000001FF
